:020000041000EA
:1000000000B5324B212058609868022188439860DF
:10001000D860186158612E4B002199600221596106
:100020000121F02299502B49196001219960352056
:1000300000F044F80222904214D00621196600F024
:1000400034F8196E01211966002018661A6600F04E
:100050002CF8196E196E196E052000F02FF8012189
:100060000842F9D1002199601B49196000215960AB
:100070001A491B48016001219960EB211966A021F2
:10008000196600F012F800219960164914480160C1
:100090000121996001BC002800D000471248134993
:1000A000086003C880F30888084703B5996A0420EC
:1000B0000142FBD001200142F8D103BD02B5186610
:1000C0001866FFF7F2FF186E186E02BD00000240BE
:1000D000000000180000070000035F00212200005C
:1000E000F4000018222000A00001001008ED00E03C
:1000F00000000000000000000000000074B24E7A12
:1001000000200420F7010010C3010010C5010010F9
:10011000C1010010C1010010C1010010C101001097
:10012000C1010010C1010010C1010010C701001081
:10013000C1010010C1010010C9010010CB01001065
:10014000CD010010CD010010CD010010CD01001037
:10015000CD010010CD010010CD010010CD01001027
:10016000CD010010CD010010CD010010CD01001017
:10017000CD010010CD010010CD010010CD01001007
:10018000CD010010CD010010CD010010CD010010F7
:10019000CD010010CD010010CD010010CD010010E7
:1001A000CD010010CD010010CD010010CD010010D7
:1001B000CD010010CD010010CD010010CD010010C7
:1001C00000BE00BE00BE00BE00BE00BEEFF3058054
:1001D000103800BEF2EB887198080510C0080510B1
:1001E0003402001090A31AE700201F49086006C8D7
:1001F00081F3088810471D48006800282FD10DA4FE
:100200000ECC002902D000F012F8F9E71849194A7B
:10021000002000E001C19142FCD1174988471749ED
:1002200088471749884700BEFDE701C901C29A42C5
:10023000FBD37047C0080510C000002094130020B5
:10024000941B05100000042000000420941B0510DE
:10025000001004200010042000000000704709482E
:1002600001F0D6FB0047000008ED00E0000000D0E0
:10027000C813002008DE0020D93A0110710E0010CA
:10028000053C01105756000006005250ABB36053B6
:100290000407051006005250861C030214070510BF
:1002A000060052505422A29D20070510050052500E
:1002B000DE65F468941B0510F8B5C04610B5064C11
:1002C0002378002B07D1054B002B02D0044800E017
:1002D00000BF0123237010BD301500200000000076
:1002E000A86E0110044B10B5002B03D0034904483D
:1002F00000E000BF10BDC046000000003415002023
:10030000A86E011010B5141E0DD080226168D200B5
:10031000074815F07BFC074A20001368013313607F
:1003200004F09CFD10BD044815F0A4FEFAE7C04699
:1003300068200020E028002000710110F0B5C646BA
:10034000036800B504000122002B3AD09F46714D8E
:100350003000290016F0EAFA6F4E3368002800D00A
:1003600090E0012B00D1C7E0002B00D1AEE00022CD
:100370006A4B2360002A03D0694A1368002B23D1FB
:10038000012004BC9046F0BD664B0360664815F042
:1003900071FE664F3B68002B0DDD654B00259846CE
:1003A000644E0023F15E404615F064FE3B68013563
:1003B0000236AB42F5DC604815F05CFE574B23601B
:1003C000DEE7564B2360DBE7013B13605B4D5C4B84
:1003D00029001800984616F073FB5A4E01003000B1
:1003E00016F0E8FA2900002016F06AFB564F0100CB
:1003F000380016F0DFFA2900002016F061FB01003A
:10040000524816F0D7FA2900002016F059FB0100D7
:100410004F4816F0CFFA4F49300016F087FA0028FF
:1004200095D13D4B39001D684B48002D4AD116F03F
:10043000C1FA0122494B4A4F1A6080220021D200A2
:10044000380015F0DDFB474E3368181D0DF080FFB6
:1004500045490200380014F035FF3068434B043042
:100460001D700DF075FF0100414815F003FEFA22E2
:10047000404B52001A60404A1368013313603F4BEF
:1004800023607DE7002B00D071E7284B41461A68B6
:100490002848520015F0BAFB8022314ED2000021CC
:1004A000300015F0ADFB04222900300015F0AEFB42
:1004B00001222E4B1A70304A136801331360194B16
:1004C00023605DE716F076FA002251E78022244E81
:1004D000D2000021300015F093FB042229003000E7
:1004E00015F094FB0122214B1A70234A1368013343
:1004F0001360234B236043E702F0A4FC214B1A68EE
:100500005B68801A994102000B001F4815F0B2FD8C
:10051000336829E710710110341E002070030010A9
:10052000E0280020880300108C700110000A0020D1
:1005300094700110000600205470011058700110D2
:1005400068200020A0150020D015002000160020F3
:10055000301600205C700110040A0020401E0020AC
:10056000D824002078D1002060700110EF1F0020F7
:100570006870011064200020DC280020C2030010F5
:10058000C2030010682400207C700110F8B50368D5
:100590000400002B2DD09F46194B036002F052FC43
:1005A000184D6B688B4222D802D12B6883421ED82B
:1005B00002F048FCFA22144B060018680F000023D2
:1005C000C117920015F076FA36184F410F4B2E6086
:1005D0006F6023600BE001220C4B03600C4B00208A
:1005E0001978514019700EF085F8054B23600120F1
:1005F000F8BD6422044B1A60044B0360F7E7C04661
:10060000980500102015002064200020D605001059
:10061000E21F0020F0B5DE4657464E464546E0B59F
:10062000026883B004000123002A57D0494D4A4E86
:100630004A4F2560002B02D03368002B07D10120E0
:1006400003B03CBC90469946A246AB46F0BD013B88
:1006500033603B68002B36D0012B6FD0404B9B465C
:10066000404B1B78012B5AD0002B41D0022B4DD090
:10067000019A531C994699B20092A022362092000A
:1006800004F082FA436880469A464A4618000021E0
:1006900015F0B6FA009A3449504615F0B7FA334BC4
:1006A0005A4618684146324B09F05CF9814640468B
:1006B00004F0D4FB4B46002B22D12E4A13680133A1
:1006C00013600023B5E72C4B1B68012B2FD0244B64
:1006D0002A4819009B460DF069FDC1E709F028FA88
:1006E000224B1860224B838243821A4B2360A6E779
:1006F0002023009301339946013B21210193BCE75C
:1007000049461F4815F0B6FC002392E71D4B1B68B5
:100710005B0001930093013399B29946ADE705233D
:10072000009301339946013B06210193A5E70C4B49
:10073000154819009B460DF039FD91E70E4B1B68DB
:10074000012BF4D0064B114819009B460DF02EFDED
:1007500086E7C046BA060010DC280020341E0020C0
:100760008C150020EF1F0020D8240020441E0020FC
:100770005C110000D8180020401E00209C70011061
:10078000B8700110000A0020040A0020A8700110AF
:1007900070B55F4C2568002D00D17BE0AF465D4B06
:1007A00023605D4B9A69920600D571E05B4A002197
:1007B000525E7F2A00D18EE02021574A93690B4078
:1007C000FCD17F21116056490A68013A5DD40A6064
:1007D000632A5BDD00230220236070BD514B236040
:1007E0004D4B9A69920653D44F4A10784B4A0021D8
:1007F000525E824276D02021474A93690B40FCD159
:1008000010600D2875D07F285AD045490B685A1CB6
:100810000A604649C854DBE7454B23603E4B9A6962
:10082000920635D43D4A0021525E0A2A4CD020213E
:10083000394A93691942FCD10A231360CAE73D4B38
:100840002360354B9A69920622D4344A0021525EC5
:10085000202A56D02021304A93691942FCD12D4BD1
:10086000116001202360B8E7334B2B4A2360936962
:10087000DB060DD4102193691942FCD112682A4B72
:1008800001201A70274B2360A7E70B602A4B2360D7
:100890000120A2E764220021244815F0B1F9204B81
:1008A0001D4A1D609369DB06F0D41021936919423B
:1008B000FCD1136893691942F8D01F4B2360E7E716
:1008C0001C4B0120236088E720219A691142FCD14A
:1008D0000D221A60ABE720219A691142FCD10D224A
:1008E0001A6069E720219A691142FCD10D221A6031
:1008F00081E70B4A0D4912680C388B540C4B23606E
:100900006BE720219A691142FCD10D221A60A1E700
:10091000681E00209E07001000400340DCDB002022
:10092000581E0020DC070010E51F002000200020DA
:10093000180800103E08001068080010F0B5C64600
:10094000134B00B51B68002B21D1124B1F68002FE1
:1009500019D1114B114D9846114E1B682F60002B79
:10096000FCDD0022340053009B189B00F3189B68A9
:10097000200098472B680C345A1C43461B682A6099
:100980009A42F0DBEAE7032004BC9046F0BD9F46A4
:100990005C1E0020641E0020701E0020F01D002040
:1009A000781E0020F0B5C646134B00B51B68002B1F
:1009B00021D1124B1F68002F19D1114B114D9846B0
:1009C000114E1B682F60002BFCDD00223400530009
:1009D0009B189B00F3189B68200098472B680C34E9
:1009E0005A1C43461B682A609A42F0DBEAE7032060
:1009F00004BC9046F0BD9F46601E0020641E00208F
:100A0000741E0020F41D0020F01E00200368F0B5C5
:100A10000122002B21D0174B0360002A1BD0164B5C
:100A20009A69920617D4154E154D3468154A2F5DF4
:100A30000021525EBA4215D020210F4A9369194213
:100A4000FCD10134176034602B5D0022002BE2D111
:100A500003600220F0BD0120FCE7084A0024136077
:100A6000074DF1E720219A691142FCD10D221A604D
:100A7000E2E7C046160A0010004003403C1E00207A
:100A800070240020DCDB0020F0B5C646036800B50A
:100A900004000122002B00D195E0A6489F46A64BFA
:100AA000236002F0CFF90023A44A801859410022A4
:100AB000A34B18605960A34B2360002A00D180E04B
:100AC00002F0C0F99E4A53688B4200D979E003D105
:100AD0001368834200D974E006229B499B4815F0B5
:100AE00095F8002393480360994B2360FFF78EFF2E
:100AF000012862DD0022974B1A60974B2360FFF7B5
:100B000047FE012859D9954D9548290015F0D8FF81
:100B1000944E0100300015F04DFF2900002015F023
:100B2000CFFF914F0100380015F044FF290000204D
:100B300015F0C6FF01008D4815F03CFF290000208C
:100B400015F0BEFF01008A4815F034FF290000208F
:100B500015F0B6FF0100874815F02CFF2900002092
:100B600015F0AEFF0100844815F024FF2900002095
:100B700015F0A6FF0100814815F01CFF80493000E8
:100B800015F0D4FE002837D07E49300015F0CEFE97
:100B900000281CD17C49380015F0C8FE002840D040
:100BA0007A49380015F0C2FE002855D10122784B51
:100BB0001A6076E7774B236073E7002004BC904609
:100BC000F0BD0120FAE7744815F054FA69E773495B
:100BD000300015F0ABFE051E1BD0714D3000290012
:100BE00015F0A4FE002829D1694B1E68012E5ED0A5
:100BF0006C4815F0C1F954E76B4815F03BFA6B48A7
:100C000015F038FA6A4815F035FA6A4815F032FAE4
:100C100047E75F4B1E68012E22D0674815F0ACF9FC
:100C20003FE780225A4BD20018600021634814F03D
:100C3000E7FF0021624815F01DFA32E75349300002
:100C400015F074FE00284DD1514B1B68012B4DD07F
:100C50005C4815F091F924E75B4815F00BFA20E7A2
:100C600080225A4BD20000211800984614F0C8FF89
:100C7000574F3B68181D0DF06BFB5649020040466C
:100C800014F020FB544A554B38681D70136804302B
:100C9000013313600DF05CFB0100514815F0EAF9D7
:100CA0005049514815F0E6F9504B1E60F9E6802294
:100CB000464FD2000021380014F0A2FF0422290080
:100CC000380014F0A3FF454B1E7002F0BBF8484BF0
:100CD000414A186059601368012001331360164BB4
:100CE00023606BE7434815F0C5F9DAE68022374DFB
:100CF000D2000021280014F083FF3F4B2F491A68CF
:100D00002800520014F082FF0222344B35491A7039
:100D1000364B3A481A6815F0ADF902F093F8344BA7
:100D20002D4A186059601368012001331360194B74
:100D3000236043E76C1E00209E0A0010A08601007D
:100D400028150020B60A0010306F01107024002012
:100D5000E80A0010681E0020FA0A001058700110FE
:100D600000200020A0180020C0150020F015002051
:100D7000201600205016002060160020701600205B
:100D8000386F01100C870110706F01103C7001105A
:100D9000341E0020B40B0010146F0110A06F01105E
:100DA00010710110E86F0110406F0110586F0110B1
:100DB000606F0110686F0110C46F01100006002001
:100DC000786F011020700110946F0110D82400205A
:100DD00078D1002060700110DC280020EF1F002077
:100DE000A86F0110040A0020B46F0110401E0020FB
:100DF0006824002044700110000A002008700110CF
:100E000010B52E2008F0A2FEA022114C9200206006
:100E10001049362003F0B8FE0F4B186020680028F8
:100E200011D00E4B0E4A1968043108F059FC002805
:100E300003D00C4815F01EF910BD206800220A49A5
:100E400008F04CFEF8E7094815F014F9F4E7C0463D
:100E5000C81F002001040000FC1F002078D10020E2
:100E60005C110000DC70011005030010E870011037
:100E7000F8B515F00BF90DF04DFC002832D10DF04E
:100E8000E1FB4C4815F078F84B484C4B4C4A0100BC
:100E90000DF0E6FB041E1FD14A4B186804300DF01C
:100EA00057FA0100484815F0E5F8FFF7A9FF474B4E
:100EB0001C60474B1C60D0231B061B68012B42D0D3
:100EC000444A1368092B12DD0022434B1A60FFF7D6
:100ED00035FD0DF05FFC03E0404815F04DF80124AE
:100EE0002000F8BD3E4815F047F80124F8E70C2033
:100EF00005005D433B493C4F4E196C505D1C7360CF
:100F0000B76015600A2DDFD006006E438F197D6033
:100F1000364D7450BD609D1C15600A2DD4D006005E
:100F20006E438F197D60324D7450BD60DD1C1560BD
:100F30000A2DC9D068430E1875602E4D0433B56074
:100F400044501360C0E72C4A1368092B05DD0022CA
:100F50002A4B1A60FFF726FDBBE70C2005005D4316
:100F60002749214F4E196C505D1C7360B7601560A6
:100F70000A2DECD006006E438F197D601B4D745016
:100F8000BD609D1C15600A2DE1D006006E438F19CF
:100F90007D60174D7450BD60DD1C15600A2DD6D0E4
:100FA00068430E187560134D0433B56044501360E8
:100FB000CDE7C046C06E0110D86E0110307500003C
:100FC0000400400078D10020F46E0110DC280020DD
:100FD000E0280020701E00205C1E0020E06E011042
:100FE000A86E0110781E00203D03001015060010A9
:100FF0008D050010890A0010741E0020601E00205C
:10100000F01E002010B508F0E9F910BD0123F0B57D
:101010000B7283B0040008F015FA0500431C0DD1D3
:101020001249134B1A685B68009201938A60CB6087
:10103000236820005B69984703B0F0BD01F002FF10
:10104000FA2206000F00920000232800002114F06D
:1010500031FD36184F41002F03DB04498E60CF600D
:10106000E6E70126034F7642F7E7C046280A00204C
:1010700030710110FFFFFF7F70B5094D04002B7820
:10108000002B08D00123074920000B722368DB697D
:101090009847012070BD02F09FFC01232B70F1E7FF
:1010A000EA1F0020180A002010B504000368044954
:1010B0009B699847236803491B6A2000984710BD25
:1010C000280A0020180A0020002070477047C046F8
:1010D00010B501F0B7FE002905D0FA2200239200D6
:1010E00014F0A0F910BDFA21890014F05DF9F9E7B8
:1010F0008368002B04D107E01A68002A06D0130089
:101100009942F9D1002005E003000833196000235B
:1011100001200B607047C0468268002A08D09142C7
:1011200003D107E0994207D01A001368002BF9D1C8
:1011300000207047020008320B6801201360F8E7B6
:101140004368002B04D107E01A68002A05D0130079
:101150009942F9D1002004E0031D19600023012009
:101160000B6070474268002A08D0914203D107E023
:10117000994206D01A001368002BF9D1002070475D
:10118000021D0B6801201360F9E7C046F8B5474619
:10119000CE46836880B58046002B25D00823434483
:1011A000994601F04FFE43469E68002E53D0CC4630
:1011B0000027B268F36804000D00A41A9D41002DB9
:1011C00002DB100019006746B4463668002EF0D1E5
:1011D000002F40D0396840460B683B604B68984709
:1011E00043469B68002BDCD143465C681E4B1E685F
:1011F0005F68002C22D00025237A002B27D025728F
:1012000021006368404698472468002CF4D1434687
:101210009B68002B04D111E006000F00231E0DD0A7
:101220009868D9681C6832003B00121A8B41002B69
:10123000F2DCF3D1002AEFD1231EF1D14346300076
:101240001E615F6139000CBC90469946F8BD246868
:10125000002CD1D1DBE743465C68034B1E685F6816
:10126000002CC8D1D3E7C04630710110F0B5C64696
:10127000804600B501F0E6FD43469B68002B0AD08E
:101280009E68DF6804000D00A41BBD41002D13DA29
:101290001B68002BF4D143465B68002B10D0187AF2
:1012A000002803D005E01A7A002A07D11B68002B1A
:1012B000F9D104BC9046F0BD0120FAE71000F8E730
:1012C0000020F6E7024B18688007C00F7047C04641
:1012D00000C006400F4A104B10B512184B41990040
:1012E000900F0843990F504059400C4A0C4B14F092
:1012F000E1FB4A01C30E1343CA0E58405140094B4B
:10130000094A14F0D7FB4A00C30F1343CA0F5840D1
:10131000514010BD157C4A7FB979379EB9E5E41C70
:101320006D4758BFBB49D094EB113113F0B5046839
:1013300045684F464646D64623002A00C0B581463A
:101340000E000868496803430A43134304D101F0BF
:1013500079FD03000B43FAD02A06230A60402706D2
:1013600013432A0A69403A43070CB8460F04BC46A7
:101370004B409A464746634642401F4303045A4047
:101380004B461A6052467A4013004A465360C20EDA
:101390004B014001C90E1343014333607160AB0040
:1013A000A10F0B43A200A4185D41EB01620E1A438A
:1013B000E4016B0E23431E0017005B0FD100F00009
:1013C0001943801979411CBC90469946A246F0BD4C
:1013D000F0B5DE4657464E464546E0B5B14B8DB0BA
:1013E0009B461B78002B00D1E1E0AF4BAF4E9846F7
:1013F000AF4BB04D03930AAB08AC05931022290004
:10140000200014F003FCAC4B9A461B78DBB204932B
:1014100001F018FDFFF75EFF089B584063680890D5
:101420005940A64B61609B69DB0400D5B5E012F022
:1014300005FCEFF305830093A14BA1469B4634685E
:101440007768009B20003900002B1BD001F036FD8F
:10145000EFF3108372B65A461268002AFBD0BFF32E
:101460005F8F3268A24210D0BFF35F8F00215A46CF
:10147000116083F3108834687768009B200039007E
:10148000002BE3D101F07CFBE2E77268BA42EBD1BA
:1014900001274C469946894BD869074001F0D2FC98
:1014A0000A22002380185941002900DA71E04346DE
:1014B0001A685B6892185B413060716011003800F7
:1014C0001A00434608431860009101925A60BFF326
:1014D0005F8F00267A4A166089F310880199FFF71A
:1014E000F9FE784AA36894465840E368A0605940E2
:1014F000039B754A1B78E160DB0063449868904267
:1015000053D00021FFF7E6FE089B5840636808901F
:1015100059406160EFF3108872B6694A1368002B76
:10152000FCD0BFF35F8F5346049A1B7893420FD0D1
:10153000089B2A68534008936A6863685340636055
:10154000AA68A3685340A360EA68E3685340E36075
:1015500005992000FFF7EAFE102206000F00280080
:10156000210014F053FB534652461B780133DBB283
:101570001370BFF35F8F0022514B1A6088F31088FD
:10158000300039000DB03CBC90469946A246AB46AF
:10159000F0BD01204D49404289E74D4BDA6BE02315
:1015A0001340402B00D044E741E79E60A9E7494B38
:1015B000984618685968484B9C46484B9946830E94
:1015C0008F011F438601030C0D041D4332003B00B5
:1015D000040412196B41121A8B41614601C98C46F1
:1015E0000021009001910098019980185941CC4543
:1015F000E5D1434618605960FFF76CFE089B08ACC4
:10160000584063680890594006A8616000F01EF9D0
:1016100006980799FFF75EFEA3685840E368A0604C
:101620005940264BE1609B69DB0437D5284BDA6BC8
:10163000E0231340402B31D0EFF3058300220393C6
:101640000023009201931E4B40259A46A146174E57
:1016500037687468039B38002100002B1BD001F011
:101660002DFCEFF3108872B653461B68002BFBD09D
:10167000BFF35F8F3368BB4232D0BFF35F8F00226E
:1016800053461A6088F3108837687468039B3800E3
:101690002100002BE3D101F073FAE2E712F0CEFA59
:1016A000CAE7C046F11F0020B01300201815002023
:1016B000E41F0020A0130020E61F002000000640C9
:1016C000300100D000000340FFFFFF00FFFFFF7F5D
:1016D0000080004098130020001C042000200420FB
:1016E0007368A342C9D1009B019C18002100C01857
:1016F0006141484B0024DA690123134003430093FE
:10170000019101F09FFB0A23C0186141002940DBD1
:1017100030607160012D43D1009801993E4B4746DE
:101720004C46984618605960BFF35F8F3B4B994613
:1017300000234A46136087F31088FFF7CBFD089B10
:101740005840636808905940616001F07BFBFFF7E7
:10175000C1FDA3685840E368A0605940E160EFF321
:10176000108772B64B461A68002AFCD0BFF35F8F11
:101770005B461B78002B1CD0294B2A4D03930AABE8
:101780000593BFF35F8F0022244B1A6087F3108804
:1017900034E601202449404230607160012DBBD005
:1017A000BFF35F8F00235246136088F31088013D1A
:1017B0004EE71E4BDA681F2A29D05A691F2A24D007
:1017C000DA691F2A20D05B6A03251F2B1DD012F077
:1017D00035FAFF25FF23124AED001370144B0392D4
:1017E0009C46052365446B600AAB190020000593F5
:1017F000FFF79CFD0B4D10222100280014F006FA83
:1018000001235A461370BCE70225EBB2E3E700253B
:10181000EBB2E0E700000640B0130020300100D03A
:10182000E41F0020A0130020FFFFFF7F0000034003
:101830000800034010B5FFF7CBFD10BD10B50248FE
:1018400000F00CF810BDC046841F002010B508221F
:10185000014914F0DBF910BD841F002010B588B0D9
:1018600004000D220021684614F0CAF90D2200215F
:1018700004A814F0C5F94B236A4604A913706846FE
:101880000D2215F0A9FA152108226944200014F050
:10189000BDF908B010BDC046EFF3108072B6034A20
:1018A0001368002BFCD0BFF35F8F70472C0100D072
:1018B000BFF35F8F0022024B1A6080F310887047DD
:1018C0002C0100D0F8B5EFF3108772B60D4E3368D7
:1018D000002BFCD0BFF35F8F0725CB08C018012376
:1018E0000D40AB401D000478254007D12343037011
:1018F000BFF35F8F356087F31088F8BD100012F0DA
:1019000085F9C0462C0100D0F8B5CE4647468C4636
:1019100080B5EFF3108872B6214D2C68002CFCD0F6
:10192000BFF35F8F9A422CD80721012511408D40CB
:10193000D4080419267835421FD007218946063974
:1019400009E04D460F001540AF40D4080419267831
:101950003D00374211D001329342F2D20120404281
:10196000BFF35F8F00220E4B1A6088F310880028A7
:101970000FDB0CBC90469946F8BD3543257010002E
:10198000EEE7BFF35F8F00232B6088F31088012000
:1019900040426346002BECD0089812F037F9C0465D
:1019A0002C0100D030B5EFF3108572B60A4C2368D5
:1019B000002BFCD0BFF35F8FCB08C0180723012298
:1019C0000B409A40037893430370BFF35F8F00236B
:1019D000236085F3108830BD2C0100D00021044B1A
:1019E000044ABFF35F8F02C39342FAD17047C046E7
:1019F000000100D0800100D0044A1078431CDBB203
:101A0000172B00D9102313707047C046400A0020DE
:101A1000142310B50100188804331B88984710BDA3
:101A2000162310B50100188802331B88984710BD93
:101A3000F0B5C64600B5002916D0142304000125D0
:101A400098461827890046184346216818883B881D
:101A5000984701C4431E984140420540A642F3D135
:101A6000280004BC9046F0BD0125F9E730B50C20F4
:101A700083B001F095FFFFF725FC00280ED0994BAD
:101A8000994A1A605A609A60DA601A615A619A61DA
:101A9000DA611A62954A5A6203B030BD944CA0676D
:101AA00001F086FF0122934B1A60636C012BFCD17D
:101AB0000322914B1A608E4A936B012BFCD10133A8
:101AC00000938E4A043301218D4801F019FF05234C
:101AD0008C4A009301218C4801F012FF8B4B5A680D
:101AE000FF2A02D8802252005A6080227D4C824B0D
:101AF00021691201854D1A60002907D0606913F031
:101B000053FC431C5800C0180338FDD2E0217F4B22
:101B100002201A681140802252012A43116019687C
:101B2000484003210140116004219A681142FCD011
:101B30008022802192012A430901116080225200F3
:101B40005A60734B2361734B5968FF2900D85A6060
:101B500003227048674B01211A6002009368194202
:101B6000FCD0E02513681D4080235B0103431D600A
:101B700012684A400321114019600221654A9368A6
:101B80001942FCD0802380219B0103430901196085
:101B90008021614B490051606361604B5A68FF2AA4
:101BA00000D8596080225E4BE16912015B4D1A60DA
:101BB000002907D0606913F0F7FB431C5800C018D8
:101BC0000338FDD2E02255490B681A4080235B019F
:101BD0002B431A60802380229B012B4312011A6041
:101BE0008022414B52004A60E3614E4B5968FF2905
:101BF00000D85A6080224C4B216A1201494D1A606C
:101C0000002907D0606913F0CFFB431C5800C018AF
:101C10000338FDD2E02243490B681A4080235B0160
:101C20002B431A60802380229B012B4312011A60F0
:101C300080235B004B602C4B3C4A23623C4B596831
:101C4000914201D801325A6080223A4B616A1201F6
:101C5000374D1A60002907D0606913F0A5FB431CBB
:101C60005800C0180338FDD2E02231490B681A40F1
:101C700080235B012B431A60802380229B012B432E
:101C800012011A608023DB024B60184B63622A4BFF
:101C90005A68FF2A02D8802252005A608022274BBD
:101CA000A1691201244D1A60002907D0606913F060
:101CB0007BFB431C5800C0180338FDD2E0221E49AC
:101CC0000B681A4080235B012B431A60802380221B
:101CD0009B012B4312011A6080235B004B600E4B6B
:101CE000A361D9E6B0180020006CDC021BB700002D
:101CF000008000403CB0004030B00040002F6859E8
:101D000000800240008C864700C0024030800040C6
:101D1000001BB7003C8000404059730754800040CE
:101D200054B000406080004060B00040FFFF0300FE
:101D30006C8000406CB000404880004048B00040DB
:101D4000014B8000C0587047B0180020094A83003A
:101D500094464022634410B51C68C0006240C02411
:101D600014408022520113431C60034B9C46604484
:101D7000416010BD04C00140004001400A4B80009A
:101D80009C4604236044002901D00C230821002A2A
:101D900000D10B00026853400C221A4080235B01E3
:101DA000184302607047C04604C00140084B8000E1
:101DB0009C466044002905D080239B0118430223E0
:101DC00003607047C0239B01184302230360F8E7B8
:101DD00004C00140D0231B061B6830B55D1EAB411B
:101DE0000E4C5D423023A44607242B40C508044016
:101DF0002800A400A1403C30094C63448000AD00A1
:101E000001515B19002A04D080229201134319600A
:101E100030BDC022920113431960F9E7004101402F
:101E200000400140D023F0B5C6461B0698461B680B
:101E30000C4D9B001700EA5800B504000E0010423C
:101E400009D1144331003A000D20EC5000F086F81F
:101E500004BC9046F0BD11F0F1FE43461B689B00A8
:101E6000EA58EEE7701F002010B504000D2000F0C6
:101E700059F9D0231B061B6802499B005A58A243FC
:101E80005A5010BD701F00200123D022834012063B
:101E900093629361094A830094464022634419681F
:101EA000C0004A40C02111408022520113431960F2
:101EB000034B9C46052360444360704704C00140C7
:101EC0000040014001238340002904D0034A1360ED
:101ED000034A13607047034A1360FBE780E200E0A7
:101EE00000E100E080E100E001238340014A13604B
:101EF0007047C04600E200E0024B10309B68800053
:101F0000C058704700ED00E070B50D00EFF310868B
:101F100072B60F4A1368002BFCD0BFF35F8F0D4BD6
:101F200010309B6884001B590B4A934203D09D429A
:101F300001D011F083FE074B9B681D51BFF35F8FEB
:101F4000BFF35F8F0022024B1A6086F3108870BDCA
:101F5000240100D000ED00E0CD010010F8B5574697
:101F60004546DE464E468A46E0B590460700EFF30A
:101F7000108972B65F4A1368002BFCD0BFF35F8FE5
:101F800000205D4B18569B46002800DAA2E05A4616
:101F900044005A4D2418A4002E19B3791037137039
:101FA000574BBA009B68934699584B1B2F2B41D82F
:101FB00001230A009A43D3799446434514D906274E
:101FC000D7571300002F06DA8DE00627DF571A00D7
:101FD000002F00DA87E07B00DB199B00EB18DF792C
:101FE0004745F2D8002A51D1464A63465B1B5B4104
:101FF0005A43120D444BA11C3380444B6918043BD7
:102000005B1A1B0542495B0D0B4373806346043426
:10201000043B2D195D1B43462D05F3716D0D534691
:102020002943B180B27101216246B360394B31431B
:10203000136018E0384B994252D1334B023433804D
:10204000324B2D19043B5D1B2D05314B6D0D1D438E
:10205000324B0121B380FF23B3714346F3715346E2
:102060007580B36031435A46254B9B689950BFF346
:102070005F8FBFF35F8F00221E4B1A6089F31088B9
:102080003CBC90469946A246AB46F8BD0627D757BA
:10209000131D9C46002F2BDB04342D19E02493885C
:1020A00024025B051B1563445B1B1B055B0D23436F
:1020B0006546341F641B2405154D640D2C43948024
:1020C0009071B3804346F3715346124AB771326040
:1020D000B360C8E711F0B2FD5B460020185656E722
:1020E00011F0ACFDA9E71A1D94461A000C4BDFE76E
:1020F0000B4BDDE7240100D0ED1F0020440A002037
:1021000000ED00E0AAAA000000A1FFFF740A002071
:1021100000E0FFFF01488047CD01001001BDFFFF37
:1021200001BD0000F0B54546DE4657464E46E0B5D7
:102130000D0083B0EFF3108972B6584A1368002B74
:10214000FCD0BFF35F8F564B9A68030010339F009B
:10215000D459544A9046944234D0AC4245D0524E61
:10216000A21B2F2A2ED801228240924651464F4A66
:1021700012681140019151464D4A1160BFF35F8FC3
:10218000EFF305829346002A35D101232200062170
:102190009A43936851569D420AD16AE04B005B18FE
:1021A00006219B00F31898685956A84228D01A00B7
:1021B0000029F3DA019B002B19D052463D4B1A60DF
:1021C0003A4B1A60364B9B68DC51BFF35F8FBFF30D
:1021D0005F8F0022314B1A6089F3108803B03CBC3A
:1021E00090469946A246AB46F0BD1400EAE7524637
:1021F0002F4B1A60E6E79342C7D011F01FFDC4E7EA
:10220000002921DB4A005018800035188046A86854
:102210009860E879D871062028569871002826DB46
:10222000AD88F01A6D052D1545444019E0250005CF
:10223000400D2D022843988052181F4B9200B6186B
:102240001A781970B271B5E75946002917D1002ADA
:1022500022D0FF3191711949918017490A789A71FA
:10226000174A9B1B5B415A43120D0A70A2E715489F
:10227000E1E713000029C5DA5A46002A0CD0124AB9
:102280001249D21A083A5002400D01439980104970
:1022900052080A43DA808DE74446DEE7240100D085
:1022A00000ED00E0CD010010440A002000E100E054
:1022B00080E100E080E200E0ED1F002001BDFFFFB3
:1022C000AAAA000001BD00007E0A002000F0FFFF66
:1022D00000F8FFFF10B5032304009C430340FF20D8
:1022E000054ADB0094469840994064442268824342
:1022F0000A43226010BDC04600E400E0F0B5EFF3F1
:10230000058101240443EFF3108672B6214A136855
:10231000002BFCD0BFF35F8F1F4B204A0500ED1A46
:102320006D416A43120D1E4D8900AF6852B27F584D
:10233000A7421CD00621595691421CD01221595651
:10234000914222D01E215956914220D02A2159561D
:102350000324914210D0134B19781A708171BFF386
:102360005F8F00220B4B1A6086F31088F0BDAB68BC
:102370000D4C5C50EFE700246100091989005B18DF
:10238000FF21997109499980E5E70124F4E70224C6
:10239000F2E7C046240100D0440A0020AAAA0000A7
:1023A00000ED00E0ED1F0020CD01001001BDFFFF9A
:1023B000054B064A1360064A136053609360D3606E
:1023C00013615361936170478080808000E400E076
:1023D00004E400E01F2110B5091A0248FFF7E2FAF1
:1023E00010BDC046F51F002000B5074B83B00100AB
:1023F0000093002205230548FFF786FA002801DB39
:102400001F23181A03B000BD14710110F51F00201E
:1024100070B504000E001500FFF7EEFA0100200071
:1024200000F006F8A680E580BFF35F8F70BDC04660
:10243000024B9C46614489000160704740000034B3
:1024400010B50400FFF7D8FA01002000FFF7F0FFF5
:10245000FF232371BFF35F8F10BDC04610B504008A
:10246000FFF7CAFA01002000FFF7E2FFFF23A38075
:10247000BFF35F8F10BDC04670B506000D0014009D
:1024800000291ED0002A1ED0736880689847630018
:102490006A001B195219033B033A3168002808D01F
:1024A000CB188A189D70117800290ED1147028005D
:1024B00008E08A18CB1894701978002900D0517060
:1024C0001D70200070BD0800FCE7597028001470D2
:1024D000F8E7C04683680B4810B5844661446244FF
:1024E000090112019A18591854684B6801209C423E
:1024F00001D802D00020C0B210BD12680B689A4209
:10250000F9D8F7E7FFFFFF0F0A4B1968EFF31080C8
:1025100072B60A68002AFCD0BFF35F8F1B68BFF356
:102520005F8F00221A6080F3108840BF00200021D6
:102530007047C046941F0020F8B54746CE4680B588
:1025400014001D000BAA0AAB12781B788046914636
:102550000768002B12D1BE7B002E44D07200921966
:102560003968033A891848783300B873002800D1D5
:10257000F873002088704870087003E01E005A004D
:10258000D218033A1A4938008C4641468968634498
:102590008C461B0108996344996009991C605D6031
:1025A000D9603B689C46002362449370537013705B
:1025B000797B3200FFF760FF7873B04213D1434656
:1025C0002200187D2B0000F0CFFC041E07D04B46E4
:1025D000002B04D143463100186801F053F90C9BDD
:1025E000002B00D01C7030000CBC90469946F8BD02
:1025F000FFFFFF0FF0B5DE4657464E464546002327
:10260000E0B58BB00893684B8200D45800239B46FA
:10261000099000F017FC6268EFF3108572B613683A
:10262000002BFCD0BFF35F8F23689C465B7B9946F1
:10263000002B00D16DE0A2685C4B90464B441B011F
:10264000984443461E685F6832003B00121A8B4173
:10265000002B00DC67E032003B00099800F084FCAE
:1026600000230022984600230692079300239A46EF
:102670006368BFF35F8F5A461A6085F3108853462C
:10268000002B08D10028C4D10BB03CBC9046994621
:10269000A246AB46F0BD089B414618024B46184384
:1026A000D047626806000F00EFF3108572B613681A
:1026B000002BFCD0BFF35F8F002F52DB33003B4376
:1026C00002D02369002B63D12368DA7B002A07D06C
:1026D00051008A1819688C4649466244033A517081
:1026E0009A7B002A01D14A469A734A46DA73E26815
:1026F0004B469446013B63441A7801321A705B469C
:1027000023616368BFF35F8F5A461A6085F31088B0
:102710007FE70023002298460023069207930023B8
:1027200000209A46A4E7002B02D1002A00D092E7AD
:102730000021604600F0C4FF43461A685B680692B9
:10274000079343469B689A464346DB689846E3688E
:102750004B44013B1B7808931B0203432361002079
:1027600086E72369002BAFD0069A079B921BBB41DB
:10277000002B15DB59460491012103914946029132
:1027800041460191514620000091FFF7D5FEB6E782
:1027900000F058FB32003B0012184B41002BE9DAE5
:1027A0000122034B5242E5E7481E0020FFFFFF0FC6
:1027B000FFFFFF7F10B5144C6368002B04D00A2183
:1027C0001248FFF735FE10BD2300114A1021206882
:1027D00000F08AFD032000F011FB032000F030FC24
:1027E0000C49032000F07AFBFFF706F90A4B9C46E0
:1027F00003232375D0231B061B6860446375074BB6
:1028000080006060DC60DAE78C0A0020941F002002
:10281000D5240010F525001040000034481E00208B
:10282000004870478C0A002070B50500182013F08E
:1028300091F9164904000200280000F06FFC1021F5
:102840002060280013F0A4F90121A060280013F0F3
:102850009FF9E060012000F0E5FA050000F0F0FBD0
:102860000B49280000F03AFBFFF7C6F8094B257525
:102870009C46D0231B061B6860446375064BAD0065
:1028800080006060EC50200070BDC046D524001070
:10289000F525001040000034481E00200E4B10B5F6
:1028A0000400984217D00021037D0C4A9B00006869
:1028B000995000F0F5FD0021207D00F00FFB207DF8
:1028C00000F0A8FAE06813F083F9A06813F080F92B
:1028D000200013F07DF910BD8C0A0020481E002056
:1028E000F0B54E4657464546DE46E0B583B0009209
:1028F00001930EAB1B7807009946002300269846EB
:102900007A68EFF3108A72B61368002BFCD0BFF31D
:102910005F8F3D68AC7B002C00D168E063001B1921
:102920002A68033BD2185178A346A973002900D125
:10293000E973967056701670B968384A8C460098DC
:102940000199A21812016244106051600C9928008C
:1029500091600D99D1602A68944663449E705E70C0
:102960001E70697B2200FFF787FD6873844244D0A4
:10297000FB681B19013B18787B68BFF35F8F1E60F3
:102980008AF31088002C45D04346002B09D15B46C2
:102990000002184303B03CBC90469946A246AB46A1
:1029A000F0BD4B46002B26D00C9B0D99002098477C
:1029B00003000B431FD004000D1E09DA009A019B8F
:1029C000121BAB4100920193002B09DBC84697E72D
:1029D00000F038FA24184D4100940195002DF5DAE5
:1029E00001230F4C5B4200930194C84688E7002303
:1029F00000209B46C0E70020CCE7387D009A019B71
:102A000000F0B2FA80460028B2D02100386800F009
:102A100039FFADE701204042BCE7C046FFFFFF0F92
:102A2000FFFFFF7FF0B54F464646D6468046C0B50D
:102A300016001F004268EFF3108A72B61368002B6D
:102A4000FCD0BFF35F8F43461D68AC7B002C44D0A5
:102A5000610009192B6803395B185A78A146AA73DB
:102A6000002A38D0002240469A705A701A70806846
:102A7000244B8446E31808981B0163449860099826
:102A80001E605F60D8602B6828009C4661448A7095
:102A90004A700A70697B2200FFF7EEFC002268731F
:102AA000844224D04346DB681B19013B1D78434612
:102AB0005B68BFF35F8F002119608AF31088002CD8
:102AC0001DD0002A0ED14B46280218431CBC90464C
:102AD0009946A246F0BDEA73C4E700230025994653
:102AE0000022E4E74346187D00F0CAFAEBE74346CC
:102AF0003200187D3B0000F037FA0200D2E70120D7
:102B00004042E3E7FFFFFF0FF8B5040000292AD099
:102B10004268EFF3108572B61368002BFCD0BFF348
:102B20005F8FFF232068CEB2427B0B40B24208D0B9
:102B300007685A00BC46D2186244033A9278002AC9
:102B400013D0E268090A94466344013B1B78C9B27A
:102B50008B420FD000206368BFF35F8F00221A60A2
:102B600085F31088F8BD0020FCE723699942F1D174
:102B70002261EFE7310000F085FEECE7407D704711
:102B8000F0B504000D0006267642F717C646361942
:102B90006F4100B584B08F4214D811D000F052F9C3
:102BA00032003B00121A8B41002B15DC002B3ED06B
:102BB0002000290000F082F904B004BC9046F0BD6A
:102BC0008642EBD90026002700F03CF932003B009A
:102BD000121A8B41002BE9DD002302930193154B60
:102BE0003200009314483B00FFF77AFE0028DFDB39
:102BF00000239846BC46114A114F7B6A9C4504D875
:102C0000B96AB142D4D29C45D2D11168EFF3108099
:102C100072B60B68002BFCD0BFF35F8F1368BFF355
:102C20005F8F4146196080F3108820BFE5E7002AD6
:102C3000BED0D1E7092500108C0A0020941F002087
:102C40000040054070B5060000F0FCF8FA220400D0
:102C50000D00920000233000002112F02BFF00191C
:102C60006941002902DBFFF78BFF70BD012001499C
:102C70004042F8E7FFFFFF7FF0B5EFF30583CE4654
:102C8000474680B5050085B00C00002B11D02B4ABB
:102C90000020536AA34207D3926A0130AA4203D2AA
:102CA0001C1B601E8441E0B205B00CBC90469946E6
:102CB000F0BD234E02930193224B0200009330009B
:102CC0000B00FFF70DFE0028E1DD20BF7268EFF377
:102CD000108772B61368002BFCD0BFF35F8F336888
:102CE000C1B29C466246FF23527B03408A420BD00E
:102CF0005A00914662461268994490464A464244B8
:102D0000033A9278002A10D0F268000A90464344B1
:102D1000013B1A78C0B282420CD07368BFF35F8F58
:102D200000221A6087F31088B1E733699842F4D122
:102D30003261F2E7604600F0A5FDEEE70040054095
:102D40008C0A002009250010F8B5EFF30582CE4665
:102D50004746100080B51038EFF3108C72B6204C47
:102D60002368002BFCD0BFF35F8F01231900814043
:102D70001C4D1D4E716329601C4DA9462D782F00F6
:102D8000C7403B4015D0736A194E984683009E5940
:102D9000B04517D3174A8D439B584A461570BFF369
:102DA0005F8F002222608CF31088002B06D098479A
:102DB00004E0BFF35F8F23608CF310880CBC904657
:102DC0009946F8BD0C4B9200984642441368136034
:102DD000BFF35F8F002323608CF31088EEE7C046BB
:102DE000280100D03C70054000400540F41F002041
:102DF000A81F002090150020D03F054010B501000D
:102E0000024A0348FEF75EFD10BDC046387101104E
:102E1000E71F002010B501000148FEF7C3FD10BDFB
:102E2000E71F002000B5054B83B00100009300228E
:102E300003230348FEF768FD03B000BD5C71011079
:102E4000E71F0020044A516A00E01900906A536AA3
:102E50009942FAD17047C04600400540164A70B505
:102E6000546A00E01C00956A536AA342FAD12A0012
:102E700023008018594105000E008C4202D819D158
:102E8000824217D9012201256D42EE1752420A4CA7
:102E9000636A9342FCD39A420BD1074B2800996A8C
:102EA000A94203D305E0996A814202D2596A91424C
:102EB000F9D070BD3200EAE700400540064A536A87
:102EC0009942FCD807D1044B02E05A6A914202D1E0
:102ED0009A6A8242F9D370470040054070B50400F9
:102EE0000D00EFF3108672B61A4A1368002BFCD05F
:102EF000BFF35F8F002D1BD02000FEF7FDFF1649AA
:102F000088420AD02000FEF7FFFF01212000FEF7D3
:102F1000D9FF0123A340114A1360114BA400E550CF
:102F2000BFF35F8F00220B4B1A6086F3108870BDD1
:102F30000B4BA200D5500122A2400A4920000B7879
:102F400093430B700449FFF7EDF800212000FEF7D2
:102F5000B9FFE5E7280100D0492D00103860054091
:102F600090150020F41F0020F0B5D6464F46464687
:102F70002E4CC0B5656A00E00D00A66A616AA942E0
:102F8000FAD1AB4209D806D0012420001CBC9046DF
:102F90009946A246F0BDB242F6D9EFF3108972B657
:102FA000234C21680029FCD0BFF35F8F0126214903
:102FB00086408C460978204D0F0037438846F9B289
:102FC0008A46614654460C701849041DA4004E639D
:102FD0006250840063510D6A002435421AD04D6A54
:102FE00000E025008F6A4C6AAC42FAD1AB4219D896
:102FF00001D1BA4216D8C24516D00C4B0F4A1E62F8
:103000005E631F2318401E3B8340136063464246A5
:1030100001241A70BFF35F8F0022054B1A6089F3F9
:103020001088B2E70024F5E70124F3E700400540EB
:10303000280100D0F41F0020A81F002080E200E03B
:1030400010B5EFF3108472B60A490B68002BFCD060
:10305000BFF35F8F01238340074A08481362027859
:103060009A430270BFF35F8F00230B6084F31088D4
:1030700010BDC046280100D000400540F41F0020CC
:1030800010B5EFF3108472B60A490B68002BFCD020
:10309000BFF35F8F01238340074802781A43027011
:1030A000BFF35F8F00220A6084F31088034A136025
:1030B00010BDC046280100D0F41F00203C60054030
:1030C00070B506000D00140000291ED0002A1ED085
:1030D00073688068984763006A001B195219033BA4
:1030E000033A3168002808D0CB188A189D701178EF
:1030F00000290ED11470280008E08A18CB189470AB
:103100001978002900D051701D70200070BD080092
:10311000FCE7597028001470F8E7C046F0B5DE46A9
:1031200057464E464546E0B589B0060004900D006E
:1031300001201021140012F02BFD032107003000A4
:1031400012F026FD0023F2B27B73013301000390DD
:10315000386005923A737D60BC60BB73FA73012AD4
:1031600000D8A0E0531ED8B2931E0690072B00D8BB
:10317000ACE0C3080293564B00259B46554B564C7A
:103180009A46564B56489846013107975246434651
:103190005F465E4662401A404E4B2740FB185A403D
:1031A000064053460196464643403340494E0A7016
:1031B000B446019E0135B146CC44664673401604C0
:1031C000360ECE701602120E4A721A04120E0B73CD
:1031D000CA731A021B0E4B75424B120E9C465C4082
:1031E0005840434618404B468A7442466344584010
:1031F000029B360E14406744EDB28E717C4018314C
:10320000AB42C3D1069907230A009A43531C079F78
:10321000DBB2914247D0039C5A00A446D218591CF5
:103220006244059DC9B2033A51708D423BD94A00B0
:103230005218981C6244C0B2033A5070854232D989
:1032400042001218D91C6244C9B2033A51708D422F
:1032500029D94A005218181D6244C0B2033A50706E
:10326000854220D942001218591D6244C9B2033A5E
:1032700051708D4217D94A005218981D6244C0B24D
:10328000033A507085420ED942001218D91D62448B
:10329000C9B2033A51708D4205D94A0052186244AE
:1032A000033A08335370FF20049B1840430018185A
:1032B000039B9C460023604403384370380009B0E8
:1032C0003CBC90469946A246AB46F0BD0123A2E71E
:1032D0007F7F7F7F010101010102030480808080E4
:1032E0000506070808080808F0B5DE4657464E46AA
:1032F0004546E0B58360002389B0426002680691CC
:103300004373C9B20133059101738373C17304928E
:10331000012900D8A4E00A004B1ED9B2931E0791E0
:10332000072B00D8AEE00025CB080393049B564C36
:10333000591C564B56489B46564B9A46564B9C46F4
:10334000564B0293524663465F465E4662401A40C1
:10335000504B2740FB185A4006405346019666469C
:10336000434033404B4E0A70B046019E0135B14692
:10337000C844464673401604360ECE701602120E2E
:103380004A721A04120E0B73CA731A021B0E4B7583
:10339000029B360E5C4063461C40404B120E984622
:1033A000029B47445840634618404B4643445840AC
:1033B000039BEDB28E718A747C401831AB42C1D14F
:1033C000079907230A009A43531CDBB2914247D066
:1033D000049C5A00A446D218591C6244059DC9B2E7
:1033E000033A51708D423BD94A005218981C6244EE
:1033F000C0B2033A5070854232D942001218D91C2B
:103400006244C9B2033A51708D4229D94A00521818
:10341000181D6244C0B2033A5070854220D9420060
:103420001218591D6244C9B2033A51708D4217D91E
:103430004A005218981D6244C0B2033A5070854247
:103440000ED942001218D91D6244C9B2033A517014
:103450008D4205D94A0052186244033A083353702A
:10346000FF23069A13405900C918049B9C46002369
:10347000614403394B7009B03CBC90469946A24662
:10348000AB46F0BD0123A3E7010203047F7F7F7FEA
:1034900005060708010101018080808008080808EE
:1034A00010B50400006812F093FB200012F090FBAE
:1034B00010BDC04670B50400002907D04B0000685D
:1034C0005B18033BC3185A78002A01D1080070BD6D
:1034D0005500AD18033D40190025467845705D70D4
:1034E0002000FFF7EDFD310005002000FFF7E2FFAF
:1034F000290002002000FFF7E3FD0100E6E7C046D7
:10350000F0B54E464546DE465746E0B50E0074001F
:103510000168A41985B0033C01920A1905001078CE
:10352000002850D043001B18033BCB185F78BC46E3
:10353000002F1AD1019C002C42D0EC7B002C04D02F
:1035400063001B19CB18033B5E70AB7B002B00D1D3
:10355000AE73EE7300282FD10023537005B03CBC2E
:1035600090469946A246AB46F0BD7A006244033AC3
:1035700089184A78934600224A7090465A70010092
:103580003A002800FFF79CFD5B468146002B07D0E0
:103590005B0029685B44033BCB185A78002A16D19C
:1035A0005A4649462800FFF78BFD2968019B0A19F6
:1035B000002BC2D10028CFD043001B18033BCB18EF
:1035C00000219970C8E7019B002BB6D1C4E75000D9
:1035D0008018033809184878824640464870587069
:1035E00059462800FFF76CFD53468346002B07D051
:1035F0005B0029685344033BCB185A78002A06D154
:10360000594652462800FFF75BFD8346C8E7500045
:1036100080180338091840464F7848705870514652
:1036200028000297FFF74CFD8246002F08D0BC46C9
:103630007B0029686344033BCB185A78002A06D1E3
:103640005146029A2800FFF73BFD8246D8E750001A
:1036500080180338091840464F784870587002990E
:1036600028000397FFF72CFD8046002F08D0BC46AA
:103670007B0029686344033BCB185A78002A06D1A3
:10368000039A41462800FFF71BFD0290D8E703206C
:1036900050430338091800204F7848705870039938
:1036A0002800FFF70DFD390002902800FFF702FF08
:1036B000029902002800FFF703FD0390E0E7C046EF
:1036C000F0B54E464546DE465746E0B5467B04001B
:1036D00075000068AD19033D85B04219019111785C
:1036E000002952D04B005B18033BC3185F78BC46DF
:1036F000002F1CD1019D002D44D0E57B002D04D06E
:103700006B005B19C318033B5E70A37B002B00D1D9
:10371000A673E673002931D1002330005370617322
:1037200005B03CBC90469946A246AB46F0BD7A0037
:103730006244033A801842789346002242709046D1
:103740005A7020003A00FFF7BBFC5B468146002B15
:1037500007D05B0021685B44033BCB185A78002AF2
:1037600017D15A4649462000FFF7AAFC019B0100E9
:1037700020684219002BC0D10029CDD04B005B1826
:10378000033BC31800209870C6E7019B002BB4D1FF
:10379000C2E750008018033809184878824640462E
:1037A0004870587059462000FFF78AFC53468346FC
:1037B000002B07D05B0021685344033BCB185A7899
:1037C000002A06D1594652462000FFF779FC83466D
:1037D000C7E7500080180338091840464F784870F2
:1037E0005870514620000297FFF76AFC8246002F6E
:1037F00008D0BC467B0021686344033BCB185A7851
:10380000002A06D15146029A2000FFF759FC824651
:10381000D8E7500080180338091840464F784870A0
:103820005870029920000397FFF74AFC8046002F4A
:1038300008D0BC467B0021686344033BCB185A7810
:10384000002A06D1039A41462000FFF739FC029076
:10385000D8E7032050430338091800204F784870F8
:10386000587003992000FFF72BFC390002902000CC
:10387000FFF720FE029902002000FFF721FC0390D1
:10388000E0E7C04670B5040000292CD0437B8B4292
:103890002ED0056848004018033828188278002A7E
:1038A00021D053009B18033BEB181A788A4202D1AF
:1038B0001BE0002A08D053009B18033BEB185A78F2
:1038C0008A42F6D142785A700023012283704370F5
:1038D0002000FFF715FE617B02002000FFF7F0FBE0
:1038E0006073012000E0002070BD42781A70EBE7A1
:1038F00001221900FFF704FE60730120F4E7C046BF
:10390000F8B50400214817001E000D0011F04CFD11
:103910000100380011F048FD069A330412031343E6
:103920002268002A21DB1A4A1A4EA21851424A4143
:10393000802149018C4652420A40174962440A607C
:1039400016490A601700B1688F43FBD1C021221DC0
:103950008901114321222560A0600A602268002AA3
:10396000FCDAE36008230B60F8BD3F2221680A40BF
:10397000AA42D8D1A2681205120D8242D3D1EE21FB
:10398000E268C9020A409A42CDD1EDE7001BB700B8
:103990000040FDBF00C0004000E0004000F00040DB
:1039A0008023024A9B000343D36270470080054096
:1039B000AA23064A1B0113602F230549D360054B38
:1039C00019605368002BFCDA7047C0460040024083
:1039D00000B0FA000060024010B501F027FD00F0D1
:1039E0004FFC00F003FE00F0AFFE05F03FFD01F0DC
:1039F0004BFD00F06BF905F0A7FC10BD40BA80B29A
:103A00007047C04600BA7047F8B54746CE4680B505
:103A1000070104003818000110308146404D414E26
:103A20002B688846B144002B02D02A7AA24258D093
:103A3000EB68002B02D02A7DA2424BD0AB69002B51
:103A400003D02022AA5CA2423DD06B6A002B03D097
:103A50002C22AA5CA2422FD03B191B01F318DB7B5E
:103A6000002C04D0B27A022A41D0012C06D08D223B
:103A70005200B25C022A43D0022C05D02A4AB25C22
:103A8000022A43D0032C03D0284AB25C022A42D037
:103A9000032B0DD8264D9B00585906F025F800221F
:103AA0003C1924013619F37B9B005A510423F3730C
:103AB0000CBC90469946F8BDAA6A414648469847CC
:103AC00000236B62C8E7EA694146484698470023ED
:103AD000AB61BAE72A694146484698470023EB6044
:103AE000ACE76A684846984700232B60A0E7F27B62
:103AF0009A42BAD104233C1924013619F373D7E74B
:103B00002022FF32B25C9A42B6D1F3E7094AB25C96
:103B10009A42B7D1EEE7084AB25C9A42B8D1E9E7D7
:103B20006C190020A41900202A0200003A030000AA
:103B30005C1900202F0200003F030000F0B54E4644
:103B4000DE46574645468446E0B5030187B0594AEC
:103B5000019363441B01D618F27A0090012A00D920
:103B6000A5E0554992008C58002C00D189E0103313
:103B70001C00504B9C466444200012F023FFA022FE
:103B8000123081B29200362000F0FEFF81460028FC
:103B900000D189E003AD0C220021280012F030F89A
:103BA0003089FFF72BFF01232880AB700C22FF33F5
:103BB00029004846AB8001F0ABFA01239B463F4BFE
:103BC0000C269A464F46013C6578631C98461C00BB
:103BD0002E2D62D0002D64D05B461A1B01E0002B15
:103BE00005D0A51801342378EDB22E2BF7D142462B
:103BF000A21A92B22B009146F318534547DC2A00D3
:103C00003100380001F036FB731C9BB275194A462F
:103C10004146380001F0B8FAADB223786E1CB6B256
:103C2000002BD1D100223100380001F023FB244BBE
:103C3000023502930422ABB202A9380001F0A4FAC3
:103C4000009A019B94461B4A634494461A491B01FF
:103C500063448C46DA7ADB7B1A499B009200585801
:103C600062443523390005F07DFE0400380001F080
:103C7000F5F8200007B03CBC90469946A246AB46FA
:103C8000F0BD00210098FFF7BFFEB472F1E70624F3
:103C9000380001F0E3F86442EBE700230025994681
:103CA000AAE700239946A7E701246442E1E7064812
:103CB0000FF0ACFFA41900209C190020FEFF0000AB
:103CC000000100015C190020AC7101107047C04672
:103CD00082B0012801D902B070478000002903D0CA
:103CE0000A68044BC250F6E7034A024B126801927D
:103CF000C250F0E79C190020748A0110F0B54646C6
:103D00004F46D646504BC0B5504E8D273400002547
:103D100098467F00A37A012B2CD0002B11D0022BC8
:103D20001AD1237B013BDBB22373002B09D1637BC8
:103D30000133DBB26373042B68D023732800FFF7D1
:103D4000FDFE01351134EDB2FF34042DE2D11CBC6F
:103D500090469946A246F0BD032B71D12368002BF3
:103D60002FD10023A37201351134EDB2FF34042D9D
:103D7000D0D1ECE7364B9946364B9A46FDF75AFDC3
:103D8000B37A80B2022B23D0F35D022B26D04B46B0
:103D9000F35C022B2BD05346F35C022B30D0022372
:103DA0000122A3720023208128000135E3722273CF
:103DB0006373EDB21134FFF7C1FEFF34042DA9D1B6
:103DC000C5E7013B2360002BBBD10023A372CAE7E8
:103DD00033898342D2D0F35D022BD8D11733FF331E
:103DE000F35A8342CAD04B46F35C022BD3D18A23C9
:103DF0009B00F35A8342C1D05346F35C022BCED1D1
:103E0000CE239B00F35A8342C9D1B7E7E37A002B54
:103E100008D142465268002A04D001226373E2723C
:103E200022738BE728000021FFF7EEFD0023013508
:103E3000A372EDB21134FF34042D00D06AE786E797
:103E400005480FF0E3FEC0469C190020A41900208D
:103E50002A0200003A0300008C710110F0B5DE4622
:103E600057464E464546E0B587B003921A68109B08
:103E7000029119680B041B0C090C5B181104090C46
:103E80005B18120CD3181C0C1B041B0CE3181C0C25
:103E90001B041B0CE418002800D19AE000239A466A
:103EA00004AB9F1D0123994653460193002341898A
:103EB0003B804B4646680A0033409C4607D00023AF
:103EC000002900D1A0E033784A1E7B70013603231D
:103ED000334005D0012A00DC9DE03388023A0236E7
:103EE000072A00DC99E008256D42AA469244524612
:103EF0000F35AA4393463200884631000832019DAF
:103F000093440A689A189A429B415B42D2184B68C4
:103F10000831D3189342924152429B188B45F0D1FD
:103F20005246D2080195551CED004146A84655461B
:103F3000D200AA1A1D042D0C4644A8461B0C43446B
:103F4000012A16DD3588A846951E4344A846012D52
:103F500006DD7588AA465344052A01DDB2889B1800
:103F600042465208551C6D00AA464546520056442A
:103F7000AA1A012A01D132783A703A88D3181A0C59
:103F80001B041B0CD218130C1204120C9B18624653
:103F9000002A39D11B041B0CE418230C2404240C24
:103FA0001C194B460B4208D0019A5A400192FF223D
:103FB0002306240A1B0C14401C430068002800D070
:103FC00074E7019B002B04D0230624041B0C240E51
:103FD0001C436B461889FFF711FD05000398FFF796
:103FE0000DFD2D182C19200C2404240C0419200C70
:103FF0002404240C0019C04380B207B03CBC904696
:104000009946A246AB46F0BDFF251A061B0A120CC4
:104010002B401343C0E70023ABE798468EE7C0462A
:1040200010B582B0049C0094FFF718FF02B010BDD9
:10403000F0B583B06B4601259C1D0023054023800D
:1040400005D0002956D0037801396370013003236D
:10405000034049D1072956DD072208390F00914353
:10406000020006000832891832689A189A429B4169
:104070005B42D21873680836D31893429241524279
:104080009B18B142F0D1F9084A1CD2008018C9002F
:104090001A04791A120C1B0C9B18012910DD0288D6
:1040A0009B188A1E012A05DD46889B19052901DD1A
:1040B00081885B1851084E1C760049008019511AFE
:1040C000012901D1027822702088C318180C1B0422
:1040D0001B0CC318180C1B041B0CC018002D0AD194
:1040E000C04380B203B0F0BD01290ADD0388023964
:1040F0000230AFE70020030600041B0C000E18433B
:10410000EEE70023DCE71A00C5E7C046F0B54E46EF
:10411000DE4657464546E0B5060085B0002800D18A
:10412000A9E000239B4602AB981D012300229A467A
:104130000024738904805446756801932C4019004B
:10414000A446002C07D0002B00D186E02B78013547
:104150004370019B591E03232B4005D0012900DC2D
:1041600082E02B8802390235072900DC81E008242F
:104170006442A14689444C4607218C4329002F0004
:10418000083161183C681C199C429B415B42E41851
:104190007B680837E318A342A44164421B19B94263
:1041A000F0D14946C9084C1CE4002D194C46C90001
:1041B000611A1C04240C1B0C1B19012912DD2C880C
:1041C0001B198C1E012C06DD6F88B8464344052957
:1041D00001DDA9885B1861084F1C7F00B8464900C3
:1041E0004544611A012901D1297801700188CB1851
:1041F000190C1B041B0CC9180B0C0904090C5B18C7
:104200006146002929D11B041B0CD218130C12047F
:10421000120C9A18534601990B4209D05B4651463D
:104220004B40FF219B461306120A1B0C0A401A43FF
:104230003668002E00D07BE75B46002B16D01006B8
:104240001204000C120E1043C04380B205B03CBCF7
:1042500090469946A246AB46F0BDFF2419061B0ABC
:10426000090C23400B43D0E70023BBE7D24390B2B5
:10427000ECE71C009FE70148E8E7C046FFFF0000AD
:1042800003220A4B002103339343094A0948136070
:10429000FA22120119719918016001201A6008713F
:1042A00005499950054A13607047C046FC28002014
:1042B000681F00206C1F0020A00FA00F0C1E002004
:1042C000F0B5D6464F464646C0B5002860D08307B5
:1042D00000D068E00300384A083B12689A425FD871
:1042E00036490C30096881425AD31879002860D0C9
:1042F000FA201C88000184420CD85D88AC468542B7
:1043000008D8981A80B280465519E04505D028880B
:10431000404502D02A480FF079FC1019814202D0A2
:1043200046884645F6D100261E71264E3768B246AD
:104330009F4201D91F003360994237D9834213D07D
:104340000679002E10D181420ED0B84225D00488C3
:104350001C800188FA200001814205D04046511896
:10436000488059888C465518AB4211D029790029CC
:104370000ED1514609688B4201D151460D60FA2198
:104380002C801B8809018B4202D0D21863465380CF
:104390001CBC90469946A246F0BD51460B60D6E73C
:1043A00009480FF033FC09480FF030FC08480FF0C3
:1043B0002DFC08480FF02AFC681F00206C1F00200D
:1043C0002C7201100C1E0020E8710110C471011044
:1043D0006072011004720110F0B5C646354BCA1C5C
:1043E00000B513400B2B3FD9FA22120193423ED85D
:1043F00099423CD8304A1468844252D82F4A1268F5
:1044000082424ED90500083D291B8AB290462E886B
:1044100041463200083A521A92B29A4244D320D00E
:10442000A7193979002924D1FA22120196423ED0E7
:104430003A88234E9446424608329B1831689BB214
:10444000E218B9422BD00026614616711180414610
:104450005180FA212B80128809018A4201D0A418C8
:10446000638004BC9046F0BD0C239942C2D9002061
:10447000F7E71F0014379742F3D8424608329B18DB
:10448000FA229BB21201964211D00D4FE218396800
:10449000914200D93A60002716801771D7E7326041
:1044A000D1E708480FF0B2FB07480FF0AFFB074811
:1044B0000FF0ACFBFCFF0000681F00206C1F002009
:1044C0000C1E0020DC720110F47201101473011034
:1044D000F0B5D6464F464646C0B500282AD03C4CDB
:1044E000C31C1C400B2C2BD9FA231B019C4221D846
:1044F000A0421FD8374BFA229C461B6812019A46ED
:10450000354B121B1D6853465B1B9EB21B041B0CD4
:1045100090469A420ED908277F42EA1810791188EE
:10452000002803D1FB1A5B18A3420BD20B000E002C
:104530008845F2D800201CBC90469946A246F0BDA2
:104540000C24D5E71427B846A044434511D20123D3
:1045500013710B0008342149096892451ED01419C3
:10456000A14232D3100008309307E4D01C480FF06A
:104570004DFBFA27083433193F019BB2B946BB42C1
:1045800020D0EF183980012138717E80138011719D
:1045900039884945DFD069184B80DCE78A420FD063
:1045A000EB181879002805D107E01B88EB1818795B
:1045B000002802D08B42F8D10B0060460360CEE7A2
:1045C0001300FAE707480FF021FB07480FF01EFB26
:1045D000FCFF00000C1E0020681F00206C1F002044
:1045E000AC720110147301107C720110242300229C
:1045F000F0B54746CE469046994603320425944688
:1046000080B5124F124B134CB94441463A682160B1
:10461000614603338B43002D0BD016880021002206
:1046200000E0030001321960981923601900AA42C2
:10463000F7DB0437B94504D03A6894685368558865
:10464000E3E70CBC90469946F0BDC046EC73011000
:10465000B0380020181E002010B5082810D80B4BC9
:104660008000C458FCF730FDA3681C68002C03D000
:1046700022681A60A30705D1FCF728FD200010BDB1
:104680000024FBE702480FF0C1FAC046EC730110AA
:10469000C873011070B50C0008280ED800290CD082
:1046A000084B8000C5588B0708D1FCF70DFDAB689F
:1046B0001A6822601C60FCF709FD70BD02480FF00B
:1046C000A5FAC046EC730110947301100C2040420F
:1046D0007047C04670B5050082B00C001600002976
:1046E0002CD043680A6800209A4201D102B070BD04
:1046F000336001A93000019201F0CEFE01A9300023
:1047000005F032FA01A9300000F070FE392322686A
:104710006A60E95C343B0B40052B06D0EB69002B4B
:1047200001D0280098470120E0E7002AF6D00B07C7
:10473000F4D5291D280008F017FCEFE701480FF019
:1047400065FAC046547401107047C046F0B5C646BD
:1047500000B5040082B00E0017009846002878D0FB
:10476000099B002B75D0002900D182E0002F00D1D9
:104770007DE04346002B00D176E0414B002563618C
:104780000022392320006560A560E56025860021B0
:10479000E2542830042211F033FA089BE561636289
:1047A0003C232562374D2A78E2540A9B2361336803
:1047B000002B43D101AA31002000FFF78BFF01221B
:1047C000A168E0683B68994200D0A36043461B683B
:1047D000834200D0E360002A40D02000099B984724
:1047E000002836D1284B3C269C461F683C23E05CC1
:1047F00000239846FF2802D143460020A355002FEE
:1048000012D0BC4239D0BB5D83421BD03B00FF229B
:1048100007E09C4231D0013A002A17D0995D8142CD
:1048200010D01B68002BF4D1FE2824D00130C0B278
:1048300063462870276020001C600BE000200021E8
:104840000022BFE70130C0B2A055D3E70F480FF0F8
:10485000DDF9002002B004BC9046F0BD01AA310091
:104860002000FFF737FFB8E7094B984685E7084F68
:104870007FE7074E7AE70020DAE706480FF0C6F92F
:10488000CD460010EE1F002078D1002024740110C6
:10489000748A011010740110F0B5040083B00D008B
:1048A00016001F0000294ED0002E4AD0002F46D0FF
:1048B0002B680022002B0CD03368A1688B4200D0FB
:1048C000A3603B68E1688B4230D1002A31D003B04D
:1048D000F0BD616801220029EED00091684601A96F
:1048E000019301F0D9FD01A9684605F03DF901A940
:1048F000684600F07BFD39232A686260E15C343B46
:104900000B40052B07D1002A05D00B0703D5211D2D
:10491000200008F029FBE369002B01D02000984714
:104920003368A16801228B42CBD0C9E7E360002A3B
:10493000CDD16A4629002000FFF7CCFEC7E7034F20
:10494000B6E7024EB2E7014DAEE7C046748A0110E9
:1049500070B5041E20D04368002B22D139220121DA
:10496000A35C19422FD1224B1A68A24239D0214AA6
:104970001368A34232D0002B0ED01A6894420DD097
:10498000002A09D013689C4204D106E01A68A242AA
:1049900004D01300002BF9D170BD130022681A60F7
:1049A000FAE7051D0021280001F076FD002128000E
:1049B00005F0DAF80021280000F018FD3922012165
:1049C000A35C1942CFD018008843A0541B070BD416
:1049D000E369002BC7D020009847C4E72368136021
:1049E000DAE700221A60C2E7200007F0F7FEEFE7DF
:1049F0007CD1002078D10020014B18607047C04660
:104A00007CD1002070B5041E14D03925435DDA072F
:104A100010D4012213434355C269002A01D09047A4
:104A2000635D05221A40052A04D16268002A01D07C
:104A30001B0700D470BD211D200008F095FAF9E78E
:104A400070B5041E03D03925435D5A0700D570BDEB
:104A500004221343435506F0EFF80523625D13402B
:104A6000052B05D0236A002BF1D020009847EEE7F4
:104A70006368002BF6D01307F4D5211D200008F041
:104A800073FAEFE710B500280AD039220421835CBD
:104A9000194205D08B438354036A002B00D09847FA
:104AA00010BDC046002815D00B4B1A68002A0FD045
:104AB0003C23D35C0133DBB2984209D03C2104E0B3
:104AC000535C0133DBB2834202D01268002AF7D173
:104AD000100070470022FBE778D10020F8B50500F0
:104AE0000026002825D00F270AE0012B23D0002B19
:104AF00029D12800FFF7E4FB0136F6B2251E18D0B5
:104B0000FCF7E2FAAC7B002C1AD0013CE4B2AC73A7
:104B1000FCF7DCFA002C0CD12B7B2C683B40022BE1
:104B2000E3D1290008200136FFF7B4FDF6B2251EB7
:104B3000E6D13000F8BD29000720FFF7ABFDDBE729
:104B400002480FF063F802480FF060F81875011082
:104B50003075011010B5FCF7B7FA0022084B1A7037
:104B6000FCF7B4FA074B1868002803D107E0C068C7
:104B7000002804D0436F002BF9D001F0D9FC10BD00
:104B800080D1002018D20020F0B54F464646D646C8
:104B90008046C0B50D00170084B2412A29D026D91D
:104BA000C1235B009A424AD0FE339A4200D078E09B
:104BB000E31C0324CA1CA343A2439B189BB2180006
:104BC000103080B2934238D3824236D8FFF780FC4F
:104BD000061E20D0002303604346C7182B041D4344
:104BE0001337334BA74347608560C36013E0012A46
:104BF00057D140233C009C43012C55D10720FFF79F
:104C00002BFD061E07D0002305810360436045810C
:104C100007734373C48130001CBC90469946A2467A
:104C2000F0BDFCF751FA0122224B1A70FCF74EFA44
:104C3000002E02D03000FFF751FF0026EBE70023E3
:104C400098461D4B00269A4600230327994607E005
:104C50004246ED1AADB21060002DDCD00024804633
:104C60000820FFF7F9FC0028DBD05246E31CBB43C9
:104C7000D31A1A1C9BB2AB4200D92A1C494604190C
:104C800093B2133442810D4ABC43016044600581F4
:104C9000C260002EDCD1ED1AADB20600002DDDD1D0
:104CA000B9E707480EF0B2FF06480EF0AFFFC04666
:104CB0008000010080D10020EC050000820001008E
:104CC000847401107074011070B5041E34D0028910
:104CD0008A421CD90D00891A07E02289ED1A521860
:104CE00022812468ADB2002C20D06389AB42F4D37A
:104CF000227B120701D1AB420AD12B0420682B433F
:104D0000A360002801D0FFF7E9FE0023236070BDF7
:104D100063682000191B691889B2FFF75DFB002842
:104D200007D08442E9D006480EF070FF05480EF027
:104D30006DFF05480EF06AFF04480EF067FFC0469D
:104D4000907501105C7501107475011044750110A7
:104D500070B5002820D0124B99421BD8002916D0DC
:104D600003898CB2E3189BB29C4213D8057B0122C5
:104D70007F2D0DD94568691A05001035A94207D362
:104D800042894160A41844810381002200E000228E
:104D9000100070BD0122FBE702480EF037FFC0464D
:104DA000FFFF00006474011010B5002817D00D4BF0
:104DB000994212D800290ED043898AB29A420CD85F
:104DC00044689B1AA4464381038961449A1A41604E
:104DD0000281002010BD0020FCE70120FAE7024814
:104DE0000EF014FFFFFF00006474011010B50029DD
:104DF00015DB00282DD0002923D003898AB2D318CF
:104E00009BB29A4223D84468611A047B7F2C1AD83B
:104E100041604189038152184281002010BD002861
:104E200017D0494243898AB29A4210D844689B1AE3
:104E3000A4464381038961449A1A4160028100209B
:104E4000ECE70020EAE704001034A142E0D20120A0
:104E5000E4E701480EF0DAFE6474011010B5002892
:104E600002D0FFF73BFE10BD01480EF0CFFEC0465A
:104E70006474011003000020002B04D01B68013073
:104E800080B2002BFAD1704710B5041E09D0FCF790
:104E90001BF9A37B0133A373FCF718F9A37B002B49
:104EA00000D010BD01480EF0B1FEC046AC75011037
:104EB00010B5002816D0002914D00268002A01D1AC
:104EC00011E01A0003890C891B1903811368100073
:104ED000002BF6D110895389834206D108891160CD
:104EE0001B18138110BD0200F4E701480EF08EFE7E
:104EF000A074011010B50C00002821D000291ED08C
:104F00000368002B01D11EE0130002892189521889
:104F100002811A681800002AF6D119895A898A4232
:104F200013D121891C6052181A81FCF7CDF8A37B9C
:104F30000133A373FCF7CAF8A37B002B08D010BD84
:104F40000029FCD0F1E70300E7E703480EF05EFE1E
:104F500002480EF05BFEC046A0740110AC75011053
:104F6000F8B54746CE46804680B591460F001E00F4
:104F7000002900D17AE00B89934200D276E0002824
:104F800000D173E04B460289F3189A4200DA6DE0D3
:104F9000002543890CE07A893B899A4238D0434600
:104FA00042465B891289934245D04A46002A4ED038
:104FB0007A899B1B521B934200D913004C4699459A
:104FC00000D91C0043465B68220098197B6836199B
:104FD000591910F01BFE4B462D191C1BA3B2994604
:104FE00043465B89B34244D37A89AA4244D303D16E
:104FF0003F680025002F14D0B342CCD143461B6834
:105000009846002B1CD07A893B8900269A42C6D14B
:105010003B68002BC3D0062040420CBC904699460A
:10502000F8BD4A46002A21D1B34217D04246128920
:1050300093420CD1002542461268002AB5D0EAE717
:105040004B46002B12D13A897B899A4201D000202D
:10505000E3E73B68002BDED10020DEE743461B6818
:105060009846002BF3D000265B89DFE710204042F2
:10507000D3E703480EF0CAFD02480EF0C7FDC04654
:10508000E4740110FC74011010B5002904D00A89E1
:105090000023FFF765FF10BD10204042FBE7C0462C
:1050A000F0B5C6460500884600B517001900002671
:1050B000002828D04346002B25D0002A07D122E023
:1050C000914207D32D68891A89B2002D1BD06A89B5
:1050D0000029F5D1521A92B23C1C974200D9141CF7
:1050E000434698196B68A4B29C463F1B614422005A
:1050F0003619BFB210F08AFDB6B22D68002F02D06B
:105100000021002DE3D1300004BC9046F0BDC04624
:10511000F8B5CE464746050080B58846914600283A
:1051200024D0002922D0038993421CD316000027E3
:10513000002A02D112E0002D1BD06C89B44200D9A4
:10514000340043466868D919220010F05FFD361B11
:105150003F192D68002EEED1B9450DD100200CBCB1
:1051600090469946F8BD01204042F8E710204042A1
:10517000F5E703480EF04AFD02480EF047FDC04631
:10518000C0750110D8750110F8B54746CE46050028
:1051900080B58846002805D13CE02D689B1B9BB25A
:1051A000002D37D06E89B342F7D229899F18B942B2
:1051B00030DB6968C818F31A934231DA9CB22200D6
:1051C0004146BE1B10F022FDB3B29946002B1FD002
:1051D0002F68002F29D0A0444346002B25D03B89BF
:1051E0004B4517D34E46002401E0002F20D07D8987
:1051F000B54200D935004346786819192A0010F0E5
:1052000005FD761B64193F68002EEED1A14512D131
:10521000002001E0012040420CBC90469946F8BDB8
:10522000414610F0F3FC0020F6E710204042F3E77F
:1052300002480EF0EBFC02480EF0E8FCC0750110CD
:10524000D875011070B5138915000A001900FFF711
:105250009BFC041E06D02A8900232900FFF780FE4C
:10526000002801D1200070BD01480EF0CFFCC046DF
:10527000D0740110002805D109E00068C91A89B26C
:10528000002804D043899942F7D243685A547047A2
:10529000F0B557464546DE464E468046E0B54F4F90
:1052A00083B03968786908F065FF43465A684C4B0B
:1052B000557A1C689A46002C00D187E0002843D11B
:1052C000012300269B46844604E0E3682600002B69
:1052D00032D01C00237CAB42F7D1217A002906D0C2
:1052E0003C237868C35C0133DBB29942EDD123687B
:1052F000002B02D079698B42E7D15946637C194271
:1053000003D0636839698B42DFD163699946002B0A
:10531000DBD00192334B42462100A069C8470028E8
:1053200049D143465A68019B934253D102239C467C
:10533000E3682600002BCCD1604603B03CBC90460D
:105340009946A246AB46F0BD0020012300269B46AD
:10535000844604E0E3682600002BEDD01C00237C8B
:10536000AB42F7D1217A002906D03C237868C35C90
:105370000133DBB29942EDD12368002BEAD15946C3
:10538000637C194203D0636839698B42E2D1636957
:105390009946002BDED00192124B42462100A069B3
:1053A000C847002807D143465A68019B9A4211D149
:1053B00002239C46CEE7002E0AD0E3680120F3606A
:1053C00053461B68E36053461C60B6E70020B4E711
:1053D0000120B2E704480EF019FCC046E428002082
:1053E000781F0020F4280020F075011010B5002867
:1053F00011D00268002A0ED000290CD00B68002BB7
:1054000009D0094B1B68002B05D01C68944203D0BF
:10541000DB68002BF9D110BD0A681A60DB68002B2D
:10542000F9D00268F1E7C046781F00207047C046F7
:1054300010B5041E23D0037D042B05D0072B0FD0FD
:105440000020032B00D010BD200003F05BF80028E3
:105450000AD105232375200003F072FB0020F2E738
:1054600003F050F8002807D0431CECD10822638BCE
:10547000002013436383E6E709232375EBE7014824
:105480000EF0C4FBD876011010B5FCF7D3F9044B2D
:1054900080049C46800C034B6044188010BDC046BD
:1054A00000C0FFFFB80A002010B5037D012B04D017
:1054B00001000220FFF7EEF810BD01480EF0A6FB38
:1054C0000C770110F8B5031E1ED0078DC16A456A1E
:1054D0005C8E104E781A4019221CB4420AD892B23F
:1054E000821A0BD5491B0BD40B4A91420FD80020CE
:1054F0005985F8BD321C92B2821AF3D45F85F8E761
:10550000002200205A85F4E704480EF07FFB04488F
:105510000EF07CFBD0160000FFFF0000E8790110C0
:105520000C7A0110F8B500281CD0037D012B33D074
:10553000028D1C4B511889B299421AD91900466A3A
:10554000458E194F0185F318C46A2A1CBD420AD83A
:1055500092B212199A1A10D5A41B1AD4134A944263
:105560001DD84485F8BD3A1C92B212199A1AF3D488
:1055700003E08A42E2D80B00E1E70D4A41851B1B9C
:105580009342EFD90222438B1343438303F0D8FAAB
:10559000E8E700234385E5E706480EF037FB0648B9
:1055A0000EF034FBA02D0000D0160000FFFF00001D
:1055B000670B0000DC7701100C7A011070B5041E37
:1055C00016D06068256800280CD0FFF747FC210042
:1055D0000420FFF75FF8002D0AD02C0060682568D2
:1055E0000028F2D121000420FFF754F8002DF4D157
:1055F00070BDC04610B5041E08D04068002801D018
:10560000FFF72CFC21000420FFF744F810BDC04632
:1056100070B5051E0DD00420FFF71EF8041E06D03D
:105620001022290010F0F2FA6068FFF72DFC20002C
:1056300070BD01480EF0EAFA0478011070B5051E3D
:1056400063D0037D012B60D90A2B5ED0806F0028C8
:1056500003D0FFF703FC0023AB676C6F002C18D05E
:105660006068266800280CD0FFF7F8FB21000420B2
:10567000FFF710F8002E0AD0340060682668002872
:10568000F2D121000420FFF705F8002EF4D1002309
:105690006B670123EC6E5B422B86002C16D0606892
:1056A000266800280CD0FFF7D9FB21000420FEF764
:1056B000F1FF002E0AD03400606826680028F2D17D
:1056C00021000420FEF7E6FF002EF4D12C6F002C01
:1056D00016D06068266800280CD0FFF7BFFB2100B9
:1056E0000420FEF7D7FF002E0AD034006068266839
:1056F0000028F2D121000420FEF7CCFF002EF4D1C7
:1057000000236822EB662B67AB5270BDF0B5DE4616
:105710004E4657464546E0B5B34EB44A336887B067
:1057200001333360B14B1B7801331370B04B9B4690
:105730005B461C68002C00D1CDE0237D1F1E00D1EC
:1057400016E2012B00D110E20A2B00D198E00022D2
:105750009246A64AA17F1278914200D141E1A277F8
:105760004222A25C022B00D137E10B2A00D8E8E0EC
:1057700002270125062B00D10CE10821627A114095
:1057800088462AD0042B02D0072B00D0C5E1226A1C
:1057900033689B1A05939423E15804338946E158F2
:1057A0000433E05888464843FA21484449000FF042
:1057B000FBFD059A824200D98FE1A3274146E05DB7
:1057C00041430800FA21484449000FF0EDFD002153
:1057D000059A8846824200D9A2E1676F002F0AD05D
:1057E0003368226A9A1A4023E15E4B005B185B0023
:1057F0009A4200D355E1237D032B44D0092B47D196
:105800003368226A9B1AF02B42D990232000E55876
:10581000FFF714FF5346002B00D16FE15B461B6876
:10582000A34200D1AAE15346E268DA604346002B66
:1058300000D056E12369E7689846237D012B00D10B
:105840009FE121000220FEF725FF0023694A137023
:10585000002D08D00D2140464942A847654B1B78D2
:10586000002B00D064E73C00002C34D0237D1F1EA9
:1058700000D17DE1012B00D177E10A2B00D068E750
:105880005D480EF0C3F93368226A9B1A282BBCD8F6
:10589000002DBAD1237F627F0133DBB2E768237723
:1058A0009A4210D8534B25771D708C23E358002B58
:1058B0000BD02100206998474E4B1B78002B00D05D
:1058C00036E7002801D0A246CDE72000A24603F02B
:1058D00037F93C1ECAD1494B1C689846002C29D088
:1058E000237D00250A2B08D045E12500E468002C23
:1058F00020D0237D0A2B00D03DE13368226A9B1A19
:10590000F02BF2D92000FFF799FE002D00D111E114
:1059100043461B68A34200D13CE1E368EB60E768C3
:10592000237D012B00D12CE121000220FEF7B2FEE5
:105930003C1EDED107B03CBC90469946A246AB4621
:10594000F0BDA122A55C002D5CD0226F002A00D002
:105950001AE1E26E002A00D122E1A222A25C0B2A07
:1059600000D905E7A020264A5519013D2978225C77
:105970008A4200D2CAE06023E15A00291AD12000ED
:1059800003F096FB00281BD0237D01270025062B62
:1059900000D0F2E6638BDB0605D53368226A9B1ADA
:1059A000282B00D93D000023676F9846002F00D0B8
:1059B00016E76DE7200002F0BDFC002800D1CDE025
:1059C000A0230022E254A132A35C062BDCD80133D1
:1059D000A35401270025237DCCE6052AB1D9012552
:1059E000CBE6A246E4683FE71CD20020F31F00206C
:1059F00018D2002014D200207878011028D200207C
:105A0000D47701103021625E002A05DB66498A42A4
:105A100006D0013212B222864021615E9142B4DC8E
:105A2000200002F08FFE002805D0236F002BABD1A1
:105A3000E36E002BA8D0237D022B13D03C22A35E63
:105A40003E21625EDB109B184222A15C0A1C0C29DD
:105A50007AD85649D2B28A5C9340554A934271DC57
:105A60004022A352002323864833E15A1833E25AD6
:105A7000131C8A4200D90B1C4A209BB25B0823529C
:105A8000618E4A0092B2934200D2225248230022F1
:105A9000E1522233E252200003F08CFA0127237DE9
:105AA00068E67868A1463C6800280CD0FFF7D6F974
:105AB00039000420FEF7EEFD002C0AD0270078689C
:105AC0003C680028F2D139000420FEF7E3FD002CE9
:105AD000F4D14C46002363678DE601233D009846D0
